:100000000C9437160C9461160C9461160C946116BE
:100010000C9461160C9461160C9461160C94611684
:100020000C9461160C9461160C9461160C94611674
:100030000C9461160C9498410C9461160C94611602
:100040000C9461160C9436660C94F7CA0C946116E5
:100050000C949CBB0C9461160C9461160C94611664
:100060000C9461160C9461160C9461160C94611634
:100070000C9461160C9461160C9461160C94611624
:100080000C9461160C9461160C946116792F7E2FD6
:10009000832F8D2FBB2FBB2F972F9F2FA72FB12FD4
:1000A0000A6EF06DF36DF66DF96D056EFC6D166EF2
:1000B000FF6D026EF4C1BBC0F2C030C2F2C0F2C02C
:1000C000F2C0F2C0F2C0F2C0F2C0F2C0F2C0F2C0A0
:1000D000F2C0F2C0F2C0F2C0F2C0F2C0F2C0F2C090
:1000E000F2C0F2C0F2C0F2C0F2C0F2C0F2C0F2C080
:1000F0002AC2F2C0F2C0F2C0F2C0F2C0F2C0F2C036
:10010000F2C003C2F2C0F2C0F2C0F2C0F2C0F2C04C
:10011000F2C0F2C0F2C0F2C047C2EFC082CA85CAC4
:1001200078CA7CCA9CCA9CCA89CA8DCA93CA97CA13
:100130004E414E494E495459494E46CDCCCC3D0ACC
:10014000D7233C17B7D13877CC2B329595E6241FAF
:10015000B14F0A000020410000C84200401C462068
:10016000BCBE4CCA1B0E5AAEC59D7400407A10F33B
:100170005A00A0724E18090010A5D4E80000E876D5
:1001800048170000E40B54020000CA9A3B0000002C
:10019000E1F505000080969800000040420F000045
:1001A00000A08601000000102700000000E8030006
:1001B0000000006400000000000A000000000001D0
:1001C00000000000002C76D888DC674F0823DFC1D0
:1001D000DFAE59E1B1B796E5E3E453C63AE651998B
:1001E0007696E8E6C28426EB898C9B62ED407C6FB4
:1001F000FCEFBC9C9F40F2BAA56FA5F490055A2A6B
:10020000F75C936B6CF9676DC11BFCE0E40D47FE76
:10021000F520E6B500D0ED902E030094357705006B
:1002200080841E080000204E0A000000C80C3333F2
:1002300033330F986E12831141EF8D2114893BE601
:100240005516CFFEE6DB18D1844B381BF77C1D908A
:100250001DA4BBE424203284725E228100C9F124F3
:10026000ECA1E53D27536C6565702E2E2E00486F7E
:100270006D652058592066697273740A00486F6D65
:100280006520585920666972737400205A3A20001C
:1002900020593A200042656420583A20004D657389
:1002A0006820706F696E742063616E6E6F74206277
:1002B00065207265736F6C7665640A00436C6963D0
:1002C0006B20746F20726573756D652E2E2E004E37
:1002D0006F206D6F76652E00456E642066696C65D3
:1002E000206C6973740A00426567696E2066696CE8
:1002F00065206C6973740A004D31323500286E6FC9
:100300002066696C6529005344207072696E7469B7
:100310006E67206279746520004E6F74205344200C
:100320007072696E74696E670A0043757272656EE9
:10033000742066696C653A200046696C65206465C6
:100340006C657465643A0044656C6574696F6E2011
:100350006661696C65642C2046696C653A200025ED
:1003600069730025696D202569730025696820255A
:10037000696D202569730025696420256968202539
:10038000696D202569730025697920256964202518
:1003900069682025696D20256973005072696E7443
:1003A0002074696D653A20004B494C4C45442E2021
:1003B000006F6B0020573A004520436F6F6C696EE9
:1003C000672E2E2E00452048656174696E672E2EBB
:1003D0002E0020573A0042656420636F6F6C696E8F
:1003E000672E2E2E004265642068656174696E6711
:1003F0002E2E2E005448334420455A41424C204F63
:1004000066662E002C20002C20004649524D574194
:1004100052455F4E414D453A4D61726C696E2054B4
:100420004833442055312E52322E313520534F550A
:100430005243455F434F44455F55524C3A2050521A
:100440004F544F434F4C5F56455253494F4E3A31EC
:100450002E30204D414348494E455F545950453A4E
:100460005448334420455A41424C20455854525533
:100470004445525F434F554E543A312055554944F7
:100480003A0A002F2F2000205400205200416363BD
:10049000656C65726174696F6E3A20500057415205
:1004A0004E494E4721204C6F77205A204A65726B87
:1004B000206D6179206C65616420746F20756E77A2
:1004C000616E746564207061757365732E0A002017
:1004D000466C6F773A200050726F6265205A204F49
:1004E00066667365743A200020643A0020693A0019
:1004F00020703A00496E76616C6964206578747288
:10050000756465720A004E6F2063617365206C69C3
:100510006768740A00426564204C6576656C696E94
:100520006720004661696C656420746F20656E61A8
:10053000626C6520426564204C6576656C696E6707
:100540000A00454550524F4D204F4B0A003F5A205C
:100550006F7574206F662072616E676520282D3577
:1005600020746F2031290A003A200050726F6265B2
:10057000205A204F6666736574004163746976651E
:100580002045787472756465723A2000496E766110
:100590006C69642065787472756465720A006F6BAB
:1005A0000020746F6F206C6F6E67206578747275B1
:1005B00073696F6E2070726576656E7465640A008B
:1005C00020636F6C6420657874727573696F6E2038
:1005D00070726576656E7465640A00627573793A47
:1005E0002070617573656420666F7220696E707526
:1005F000740A00627573793A2070617573656420BE
:10060000666F7220757365720A00627573793A209D
:1006100070726F63657373696E670A004D363030B0
:1006200000506C656173652072657365740050528B
:10063000494E5445522048414C544544005072693B
:100640006E7465722068616C7465642E206B696CD1
:100650006C28292063616C6C6564210A00656E71E9
:1006600075657565696E6720220000000000000056
:1006700000000000000000002042000020420000B6
:100680000041000000005761726E696E673A2048B1
:100690006F6D696E672042756D702044697669736D
:1006A0006F72203C20310A000202040000A04000CA
:1006B00000A0400000004000006B4300006B4300BE
:1006C000007A43FFFFFF57726974696E6720746F89
:1006D0002066696C653A20006F70656E20666169FE
:1006E0006C65642C2046696C653A20006F70656EFD
:1006F000206661696C65642C2046696C653A20004F
:1007000046696C652073656C65637465640A0020D6
:1007100053697A653A200046696C65206F70656E92
:1007200065643A20002066696C653A2000646F6950
:100730006E67006672657368004E6F772000454EE5
:100740004420535542524F5554494E450A002220E9
:10075000706F73002220706172656E743A220053CC
:100760005542524F5554494E452043414C4C2074FC
:1007700061726765743A22004B494C4C45442E2007
:1007800000747279696E6720746F2063616C6C20ED
:100790007375622D67636F64652066696C6573208D
:1007A0007769746820746F6F206D616E79206C6555
:1007B00076656C732E204D4158206C6576656C20F3
:1007C00069733A004572726F723A006F70656E20FD
:1007D0006661696C65642C2046696C653A2000434B
:1007E000616E6E6F74206F70656E207375626469E0
:1007F0007220006563686F3A00000022002500281F
:10080000002B0000002100240027002A0002020221
:1008100002020202020404040404040404030303A5
:1008200003030303030101010101010101010204AA
:1008300008102040800102040810204080010204BA
:10084000081020408080402010080402014531201B
:10085000544845524D414C2052554E415741590044
:1008600042454420544845524D414C2052554E413A
:1008700057415900546865726D616C2052756E6104
:100880007761790024F4D43050C38E20C2A240177F
:10089000828B7011127A910D816CD90AA861E108DE
:1008A000C7586607615143061E4B5D05C145A70445
:1008B0001A411104093D9803713931034036DB02B6
:1008C00065339102D4305402802E1D02632CEE0158
:1008D000752AC501B028A001102781018F25640168
:1008E0002B244B01E0223401AC211F018D200D018E
:1008F000801FFC00841EED00971DDF00B81CD20095
:10090000E61BC600201BBC00641AB200B219A80086
:100910000A19A0006A189900D117910040178B009E
:10092000B516840031167E00B31579003A157300B0
:10093000C7146F0058146A00EE1366008813630032
:1009400025135E00C7125B006C125700151254008D
:10095000C111510070114F0021114B00D6104900F8
:100960008D1047004610440002104200C00F4000A6
:10097000800F3E00420F3C00060F3B00CB0E3800BC
:10098000930E37005C0E3500270E3400F30D320055
:10099000C10D3100900D3000600D2E00320D2D0084
:1009A000050D2C00D90C2B00AE0C2900850C29005C
:1009B0005C0C2700350C27000E0C2600E80B2400E9
:1009C000C40B2400A00B23007D0B23005A0B210035
:1009D000390B2100180B2000F80A1F00D90A1E004D
:1009E000BB0A1E009D0A1D00800A1D00630A1C0030
:1009F000470A1B002C0A1B00110A1A00F7091A00EB
:100A0000DD091900C4091900AB0919009209170082
:100A10007B091800630917004C09160036091600F7
:100A2000200916000A091500F5081500E008140051
:100A3000CC081400B8081400A4081400900813008F
:100A40007D0812006B0813005808120046081200B7
:100A500034081100230811001208110001081100C8
:100A6000F0071000E0071000D0071000C0071000CA
:100A7000B0070F00A107100091070E0083070F00B9
:100A800074070F0065070E0057070E0049070E0098
:100A90003B070D002E070E0020070D0013070D0069
:100AA00006070D00F9060C00ED060D00E0060C002F
:100AB000D4060C00C8060C00BC060C00B0060C00E6
:100AC000A4060B0099060C008D060B0082060B0095
:100AD00077060B006C060B0061060A0057060B0038
:100AE0004C060A0042060A0038060A002E060A00D2
:100AF00024060A001A060A001006090007060A0062
:100B0000FD050900F4050900EB050900E2050900EF
:100B1000D9050900D0050900C7050900BE0509006F
:100B2000B5050800AD050800A50509009C050800ED
:100B3000940508008C050800840508007C05080061
:100B4000740508006C050700650508005D050700D1
:100B5000560508004E050700470507004005080038
:100B600038050700310507002A050700230507009F
:100B70001C050600160507000F05070008050600FE
:100B800002050700FB040600F5040700EE0406005A
:100B9000E8040600E2040700DB040600D5040600B2
:100BA000CF040600C9040600C3040600BD04060005
:100BB000B7040600B1040500AC040600A604060054
:100BC000A00405009B04060095040500900406009F
:100BD0008A04050085040500800406007A040500E7
:100BE00075040500700405006B040500660405002B
:100BF000610405005C04050057040500520405006B
:100C00004D04050048040500430405003E040400AB
:100C10003A04050035040500300404002C040500E6
:100C200027040400230405001E0404001A04040021
:100C300016040500110404000D0404000904050055
:100C40000404040000040400FC030400F80304008E
:100C5000F4030400F0030400EC030400E8030400C0
:100C6000E4030400E0030400DC030400D8030400F0
:100C7000D4030400D0030400CC030400C803030021
:100C8000C503030024F404D9201BC40C5C0E980493
:100C9000C4095F0265077101F405F900FB04B300A4
:100CA00048048700C1036900580355000303450049
:100CB000BE023A008402310053022A0029022500B4
:100CC00004022000E4011C00C8011900AF01170054
:100CD00098011400840113007101100061011000DB
:100CE00051010E0043010D0036010B002B010B00DA
:100CF00020010B00150109000C0109000301080087
:100D0000FB000800F3000800EB000700E400060009
:100D1000DE000600D8000600D2000600CC00050068
:100D2000C7000500C2000500BD000400B9000400B2
:100D3000B5000400B1000400AD000400A9000400E7
:100D4000A5000300A20003009F0004009B00030015
:100D50009800030095000200930003009000030038
:100D60008D0002008B000300880002008600020054
:100D700084000300810002007F0002007D00020069
:100D80007B0002007900020077000100760002007B
:100D90007400020072000100710002006F00020086
:100DA0006D0001006C0002006A0001006900020091
:100DB0006700010066000100650001006400020098
:100DC0006200010061000100600001005F0002009C
:100DD0005D0001005C0001005B0001005A000100A1
:100DE00059000100580001005700010056000100A1
:100DF00055000100540001005300000053000100A1
:100E00005200010051000100500001004F0001009C
:100E10004E0000004E0001004D0001004C0001009A
:100E20004B0000004B0001004A0001004900010096
:100E30004800000048000100470001004600000093
:100E4000460001004500000045000100440001008B
:100E50004300000043000100420000004200010086
:100E60004100000041000100400001003F0000007F
:100E70003F0001003E0000003E0001003D00000078
:100E80003D0001003C0000003C0000003C0001006F
:100E90003B0000003B0001003A0000003A00010066
:100EA000390000003900010038000000380000005F
:100EB0003800010037000000370001003600000054
:100EC000360000003600010035000000350000004B
:100ED000350001003400000034000000340001003F
:100EE0003300000033000000330001003200000036
:100EF000320000003200010031000000310000002B
:100F0000310001003000000030000000300001001E
:100F10002F0000002F0000002F0000002F00010014
:100F20002E0000002E0000002E0001002D00000009
:100F30002D0000002D0000002D0001002C000000FD
:100F40002C0000002C0000002C0001002B000000F1
:100F50002B0000002B0000002B0001002A000000E5
:100F60002A0000002A0000002A00010029000000D9
:100F700029000000290000002900000029000100CC
:100F800028000000280000002800000028000000C1
:100F900028000100270000002700000027000000B3
:100FA00027000000270001002600000026000000A6
:100FB0002600000026000000260001002500000099
:100FC000250000002500000025000000250000008D
:100FD000250001002400000024000000240000007F
:100FE0002400000024000100230000002300000072
:100FF0002300000023000000230000002300000065
:101000002300010022000000220000002200000056
:101010002200000022000000220001002100000048
:10102000210000002100000021000000210000003C
:10103000210000002100010020000000200000002D
:101040002000000020000000200000002000000020
:1010500020000000200001001F0000001F00000011
:101060001F0000001F0000001F0000001F00000004
:101070001F0001001E0000001E0000001E000000F6
:101080001E000000043700001E290000511B000054
:101090005810000010090000CC0400007802000085
:1010A000410100006265640A002C20737973746545
:1010B0006D2073746F70706564212048656174657C
:1010C000725F49443A200042656420686561746932
:1010D0006E67206661696C65640048656174696E5D
:1010E00067206661696C65640045312048656174FC
:1010F000696E67206661696C656400486561746942
:101100006E67206661696C65640020746F6F206C87
:101110006F6E6720657874727573696F6E20707278
:101120006576656E7465640A0020636F6C64206583
:101130007874727573696F6E2070726576656E74FF
:1011400065640A004D3630303A20546F6F20636F6B
:101150006C6400486F74656E6420746F6F20636FF9
:101160006C640A004D343820526573756C743A20F3
:101170002573005374616E646172642044657669FE
:101180006174696F6E3A200046696E6973686564C0
:10119000210A003F2028582C5929206F7574206F90
:1011A0006620626F756E64732E0A004D34382054C9
:1011B0006573742052756E6E696E672E2E2E0A004E
:1011C000205A3A0020593A0020436F756E74205817
:1011D0003A0020453A00205A3A0020593A00583A3D
:1011E0000023646566696E652044454641554C544C
:1011F0005F4B64200023646566696E652044454644
:1012000041554C545F4B69200023646566696E65E7
:101210002044454641554C545F4B70200050494492
:10122000204175746F74756E652066696E697368A8
:101230006564212050757420746865206C61737436
:10124000204B702C204B6920616E64204B6420631E
:101250006F6E7374616E74732066726F6D20626559
:101260006C6F7720696E746F20436F6E6669677567
:10127000726174696F6E2E680A005049442041758E
:10128000746F74756E65206661696C656421207485
:10129000696D656F75740A00453120544845524D9B
:1012A000414C2052554E4157415900546865726D6A
:1012B000616C2052756E6177617900453120486517
:1012C0006174696E67206661696C65640048656178
:1012D00074696E67206661696C65640050494420DA
:1012E0004175746F74756E65206661696C65642103
:1012F0002054656D706572617475726520746F6FCE
:1013000020686967680A00204B643A2000204B6916
:101310003A2000204B703A20000A20436C6173731E
:10132000696320504944200A002054753A20002067
:101330004B753A2000206D61783A2000206D696E6F
:101340003A200020643A200020626961733A20004C
:10135000504944204175746F74756E6520666169EB
:101360006C6564212054656D706572617475726579
:1013700020746F6F20686967680A005049442041F3
:1013800075746F74756E652073746172740A0050A1
:101390004944204175746F74756E65206661696C8F
:1013A0006564212042616420657874727564657299
:1013B000206E756D6265720A00496E7365727420E5
:1013C00066696C616D656E7420616E642070726513
:1013D000737320627574746F6E0A00507265737354
:1013E00020627574746F6E20746F2068656174205C
:1013F0006E6F7A7A6C650A00496E73657274206646
:10140000696C616D656E7420616E642070726573C5
:101410007320627574746F6E20286F72204D3130A6
:1014200038290A0070012C0190012701B001220126
:10143000C0011D01F00118011002130130020E015C
:101440006002090190020401C002FF000003FA00DB
:101450004003F5008003F000D003EB002004E60019
:101460007004E100E004DC004005D700C005D200B4
:101470004006CD00D006C8008007C3003008BE007B
:10148000F008B900C009B400B00AAF00B00BAA0060
:10149000D00CA500000EA000500F9B00C0109600BD
:1014A0005012910000148C00C0158700B017820004
:1014B000B0197D00D01B7800001E730040206E0024
:1014C00090226900F024640040275F0090295A00B0
:1014D000E02B5500102E500020304B0010324600FB
:1014E000E033410090353C0010373700703832004F
:1014F000A0392D00B03A2800A03B2300603C1E001C
:10150000103D1900903D1400103E0F00703E0A007F
:10151000C03E0500003F0000403FFBFF803FF6FF5C
:10152000C03FF1FF1000C90210012C01400122014F
:1015300070011801B0010E01F00104015002FA001F
:10154000B002F0003003E600D003DC009004D200CB
:101550007005C800A006BE000008B400B009AA00CB
:10156000D00BA000600E960060118C000015820068
:1015700020197800C01D6E00A0226400B0275A0018
:10158000902C500000314600E0343C00103832000E
:10159000903A2800603C1E00A03D1400803E0A00E6
:1015A000203F00004531204572723A204D41585489
:1015B000454D50004572723A204D415854454D50AA
:1015C00020424544004D415854454D5020747269A5
:1015D000676765726564004531204572723A204D37
:1015E000494E54454D50004572723A204D494E5473
:1015F000454D5020424544004D494E54454D5020E4
:1016000074726967676572656400202F002042402C
:101610003A0020403A004D3234004D3233202573D9
:1016200000556E6B6E6F776E20636F6D6D616E64CB
:101630003A202200496E736572742066696C616D90
:10164000656E7420616E64207072657373206275BC
:1016500074746F6E20286F72204D313038290A0063
:10166000486F74656E6420746F6F20636F6C640ADA
:101670000050726F62696E67206661696C65640A0A
:101680000050726F62696E67206661696C65640004
:10169000205A3A200020593A200042656420583AE6
:1016A000200053442063617264206F6B0A006F70E6
:1016B000656E526F6F74206661696C65640A0076AE
:1016C0006F6C756D652E696E6974206661696C65F5
:1016D000640A00534420696E6974206661696C0A6B
:1016E00000486F6D65202573257325732066697228
:1016F0007374002066697273740A005A00590058A6
:1017000000486F6D6520002020506C616E6E657220
:1017100042756666657242797465733A20002046A8
:10172000726565204D656D6F72793A2000436F6D6B
:1017300070696C65643A2053657020203420323023
:1017400031390A00207C20417574686F723A202874
:1017500054483344290A0000204C617374205570AA
:1017600064617465643A2000544833442055312E36
:1017700052322E31350A004D61726C696E00205371
:101780006F6674776172652052657365740A002014
:101790005761746368646F672052657365740A00EB
:1017A0002042726F776E206F757420526573657476
:1017B0000A002045787465726E616C20526573650D
:1017C000740A00506F77657255700A007374617205
:1017D000740A006175746F25692E67006572726FF7
:1017E000722077726974696E6720746F2066696C05
:1017F000650A00456E6473746F707320256320253D
:101800006320256320256300205A3A0020593A00BE
:1018100020583A00656E6473746F70732068697441
:101820003A2000446F6E6520736176696E672066AA
:10183000696C652E0A004D3239004D6F766520586F
:10184000004D6F76652059004D6F7665205A004532
:1018500078747275646572004D6F766520302E3134
:101860006D6D004D6F766520316D6D004D6F766545
:101870002031306D6D004D6F7665206178697300A1
:101880004578747275646572004D6F7665205A00F4
:101890004D6F76652059004D6F766520580045786C
:1018A000747275646572004D6F7665205A004D6FD5
:1018B00076652059004D6F7665205800507265702E
:1018C00061726500526573657420454550524F4DF5
:1018D00000436F6E74726F6C0052657365742045BF
:1018E0004550524F4D0053746F7265207365747488
:1018F000696E6773004D6F74696F6E0054656D702B
:1019000065726174757265004D61696E004D3330AA
:10191000332055312045256920532569005049441D
:10192000204175746F74756E65005049442041758F
:10193000746F74756E65005049442D4400504944DD
:101940002D44005049442D49005049442D49005030
:1019500049442D50005049442D500046616E20737B
:10196000706565640046616E207370656564004251
:10197000656400426564004E6F7A7A6C65004E6F54
:101980007A7A6C6500436F6E74726F6C00436861A5
:101990006E67652066696C616D656E740043686191
:1019A0006E67652066696C616D656E74004D3630DA
:1019B000302042300050726F6265205A204F6666B8
:1019C00073657400466C6F7700466C6F77004661F4
:1019D0006E2073706565640046616E207370656586
:1019E000640042656400426564004E6F7A7A6C65FB
:1019F000004E6F7A7A6C65005370656564005370B1
:101A0000656564004D61696E00507265686561745A
:101A100020504C4120456E640050726568656174C9
:101A200020504C41204265640050726568656174C5
:101A300020504C41005072657061726500507265B3
:101A4000686561742041425320456E6400507265A0
:101A5000686561742041425320426564005072659C
:101A6000686561742041425300507265706172650F
:101A70000050726568656174204142530050726580
:101A80006865617420504C4100436F6F6C646F77E0
:101A90006E004368616E67652066696C616D656E96
:101AA00074004368616E67652066696C616D656E80
:101AB00074004D3630302042300044697361626CEE
:101AC00065207374657070657273004D3834005210
:101AD000756E204D34382054657374004732380ACF
:101AE0004D34382050313000486F6D65205A004722
:101AF0003238205A00486F6D65205900473238202F
:101B00005900486F6D652058004732382058004111
:101B100075746F20686F6D6500473238004D6F76C1
:101B2000652061786973004D61696E0020204E6FF9
:101B30007A7A6C653A20002000506C6561736520EC
:101B4000776169742E2E2E0048656174696E672076
:101B50006E6F7A7A6C650020204E6F7A7A6C653AE7
:101B60002000200068656174206E6F7A7A6C652EA3
:101B700000507265737320627574746F6E20746F99
:101B80000020204E6F7A7A6C653A2000746F2063D3
:101B90006F6E74696E75652E2E2E00616E642070F6
:101BA0007265737320627574746F6E00496E73652D
:101BB00072742066696C616D656E740020204E6FD2
:101BC0007A7A6C653A2000200066696C616D656EFA
:101BD00074206C6F6164005761697420666F7200D5
:101BE00020204E6F7A7A6C653A2000200066696C7E
:101BF000616D656E742070757267650057616974F8
:101C000020666F7200746F20726573756D65005782
:101C100061697420666F72207072696E74000006CC
:101C20000900FE0701920321207FFF07FF07FF0045
:101C30000000060000010707060200808080808007
:101C40000080030202060105A0A0050707060000A8
:101C50005050F850F850500507070600002078A0B3
:101C60007028F020050707060000C0C81020409823
:101C7000180507070600006090A040A890680203BE
:101C800003060104C04080030707060100204080CE
:101C9000808040200307070601008040202020406C
:101CA0008005050506000120A870A8200505050689
:101CB00000012020F820200203030602FFC040801C
:101CC000050101060003F8020202060200C0C00579
:101CD00005050600010810204080050707060000E2
:101CE0007088888888887003070706010040C04014
:101CF000404040E0050707060000708808708080BB
:101D0000F8050707060000F81020100808F005077E
:101D10000706000010305090F81010050707060065
:101D200000F880F00808887005070706000070803A
:101D300080F0888870050707060000F8081020204A
:101D400020200507070600007088887088887005C5
:101D500007070600007088887808087002050506E5
:101D60000200C0C000C0C00206060602FFC0C000DC
:101D7000C04080040707060000102040804020106B
:101D8000050303060002F800F804070706010080B7
:101D900040201020408005070706000070880810CA
:101DA00020002005070706000070880868A8A870B2
:101DB000050707060000708888F8888888050707E7
:101DC000060000F08888F08888F005070706000004
:101DD00070888080808870050707060000F088887A
:101DE000888888F0050707060000F88080F080806A
:101DF000F8050707060000F88080F080808005075E
:101E000007060000708880B88888700507070600FC
:101E100000888888F8888888010707060200808083
:101E200080808080800507070600003810101010A1
:101E300090600507070600008890A0C0A090880564
:101E40000707060000808080808080F8050707066D
:101E5000000088D8A88888888805070706000088B9
:101E600088C8A898888805070706000070888888B1
:101E7000888870050707060000F08888F080808059
:101E800005070706000070888888A890680507077E
:101E9000060000F08888F0A090880507070600007B
:101EA000788080700808F0050707060000F82020F9
:101EB0002020202005070706000088888888888859
:101EC0007005070706000088888888885020050765
:101ED000070600008888888888A85005070706003C
:101EE00000888850205088880507070600008888E9
:101EF0008850202020050707060000F80810204021
:101F000080F8030707060100E08080808080E005FC
:101F100005050600018040201008030707060100A0
:101F2000E02020202020E005030306000420508844
:101F3000050101060000F8020202060205804005C4
:101F40000505060000700878887805070706000078
:101F50008080B0C88888F005050506000070808084
:101F600088700507070600000808689888887805C3
:101F700005050600007088F8807005070706000058
:101F80003048E0404040400506060600FF70888863
:101F90007808700507070600008080B0C888888828
:101FA0000107070602008000808080808003080807
:101FB0000601FF200020202020A040040707060083
:101FC00000808090A0C0A090030707060100C040D9
:101FD00040404040E0050505060000D0A8A8A8A89C
:101FE000050505060000B0C88888880505050600B7
:101FF0000070888888700506060600FFF08888F063
:1020000080800506060600FF7888887808080505A0
:1020100005060000B0C88080800505050600007038
:10202000807008F00407070600004040E040404090
:1020300030050505060000888888986805050506AE
:10204000000088888850200505050600008888A8BB
:10205000A850050505060000885020508805060692
:102060000600FF888888780870050505060000F8D6
:10207000102040F803070706010020404080404040
:10208000200107070602008080808080808003078F
:102090000706010080404020404080050202060003
:1020A00002689000000006000020496E76616C69AD
:1020B0006420657874727564657220000000000009
:1020C000000000000000000000006B4300006B43B4
:1020D00000007A4342696C696E656172204C6576D6
:1020E000656C696E6720477269643A0A002028446B
:1020F000525952554E2900473239204175746F208C
:10210000426564204C6576656C696E67003F2028E7
:102110004C2C522C462C4229206F7574206F66205F
:10212000626F756E64732E0A003F285629657262CD
:102130006F7365206C6576656C20697320696D70BE
:102140006C61757369626C652028302D34292E0A04
:1021500000426164205A2076616C75650A004E6FFA
:102160002062696C696E65617220677269640A0039
:10217000454550524F4D206461746173697A652002
:102180006572726F722E0A00290A002062797465E6
:10219000733B20637263200053657474696E6773C8
:1021A0002053746F726564202800290A0020627928
:1021B0007465733B2063726320002073746F7265D3
:1021C000642073657474696E6773207265747269D4
:1021D00065766564202800202863616C63756C61F6
:1021E00074656429210A0020213D20004545505294
:1021F0004F4D20435243206D69736D6174636820B5
:102200002D202873746F7265642920002053697A29
:10221000653A2000496E6465783A2000204D61726D
:102220006C696E3D563535290A0028454550524F98
:102230004D3D00454550524F4D2076657273696F94
:102240006E206D69736D617463682000000609007B
:10225000FE000000000001090008FE00000508085B
:1022600006000040F0C88888987810050808060025
:1022700000C0F88888888888F805050506000120D0
:1022800030F830200508080600002070F8202020D3
:1022900020E00509090600FF2070A8A8B88888700A
:1022A000200509090600FFE080C0B0A828302828D2
:1022B0000509090600FFF8A88888888888A8F80515
:1022C0000A0A0600FE205050505088A8A8887003C3
:1022D000030306000340A04025753A2530327500FF
:1022E000253032753A253032750025756420253049
:1022F00032753A25303275005A00590058000920CD
:10230000000000000000000000000000003FFFF09F
:102310000000000000000000000000003800700015
:10232000000000000000000000000030FC30000051
:102330000000000000000000000020FC1000000071
:1023400000000000000000000020781000000000E5
:10235000000000000000000020301000000000001D
:10236000000000000000002C00D03FC00000000072
:102370000000002082002E31D07FE000000000002D
:1023800000001041002F7BD07FE000000000000023
:10239000001041002F7BD07FE00000000000000013
:1023A0002082002E31D03FC000000000000000411C
:1023B00004002C00D03FC000000000000000820894
:1023C000002030107FE000000000000000820800C4
:1023D0002078107FE0000000000000004104002091
:1023E000FC107FE00000000000000020820030FCB4
:1023F000301F800000000000000000000038007066
:102400000F0000000000000000FFFFC03FFFF006CB
:102410000000000000000000FFFFC00000000000FE
:10242000000000000000000000003FFFF00000007E
:1024300000000000000000000038007000000000F4
:1024400000000000000000003186300000000000A5
:1024500000000000000000238710000000000000C2
:10246000000000000000278790000000000000002E
:1024700000000000002F87D00000000000000000D6
:10248000000000002F03D03FC0000000000000004B
:102490002082002030107FE00000000000000010CB
:1024A00041002078107FE000000000000000104193
:1024B000002078107FE00000000000000020820073
:1024C0002030103FC0000000000000004104002F39
:1024D00003D03FC0000000000000008208002F87EA
:1024E000D07FE000000000000000820800278790F5
:1024F0007FE0000000000000004104002387107FFF
:10250000E0000000000000002082003186301F80C3
:10251000000000000000000000003800700F000004
:10252000000000000000FFFFC03FFFF006000000B9
:102530000000000000FFFFC00000004861726463FB
:102540006F6465642044656661756C7420536574BE
:1025500074696E6773204C6F616465640A00F401EE
:10256000000020030000F4010000881300000000B8
:10257000484300004843000070410000484200000A
:10258000A0420000A0420000C8430000BE423A0A38
:102590000020286D6D290020204D383531205A004B
:1025A0005A2D50726F6265204F6666736574002005
:1025B000440020490020204D333031205000504944
:1025C000442073657474696E67733A0A00205A0078
:1025D000204A002020473239205720490020204D32
:1025E0003432302053004175746F20426564204CB2
:1025F0006576656C696E673A0A00204500205A00CE
:1026000020590020580020540020530020204D3233
:10261000303520510020453C6D61785F655F6A650B
:10262000726B3E0020583C6D61785F785F6A65721E
:102630006B3E20593C6D61785F795F6A65726B3ED5
:10264000205A3C6D61785F7A5F6A65726B3E00412B
:102650006476616E6365643A20513C6D696E5F73A8
:1026600065676D656E745F74696D655F75733E2037
:10267000533C6D696E5F66656564726174653E208A
:10268000543C6D696E5F74726176656C5F666565FA
:1026900064726174653E0020540020520020204D79
:1026A000323034205000416363656C657261746937
:1026B0006F6E2028756E6974732F7332293A20501B
:1026C0003C7072696E745F616363656C3E20523C5E
:1026D000726574726163745F616363656C3E2054FC
:1026E0003C74726176656C5F616363656C3E0A0081
:1026F000204500205A0020590020204D3230312042
:1027000058004D6178696D756D20416363656C6536
:10271000726174696F6E2028756E6974732F7332DD
:10272000293A0A00204500205A0020590020204D57
:102730003230332058004D6178696D756D206665C3
:10274000656472617465732028756E6974732F7384
:10275000293A0A00204500205A0020590020204D27
:10276000393220580053746570732070657220757B
:102770006E69743A0A0020204D3134392043203BE1
:1027800020556E69747320696E2043656C7369759A
:10279000730A002020473231202020203B00486F60
:1027A0006D696E67206661696C65640054524947C3
:1027B0004745524544006F70656E003A20006669D7
:1027C0006C616D656E74007A5F6D696E00795F6D26
:1027D000696E00785F6D696E005265706F72746922
:1027E0006E6720656E6473746F70207374617475A6
:1027F000730A007C3C3E5E2B3D3F2F5B5D3B2C2AE9
:10280000225C004B494C4C45442E200053544F5001
:102810005045442E20005072696E746572207374A6
:102820006F707065642064756520746F20657272C6
:102830006F72732E20466978207468652065727205
:102840006F7220616E6420757365204D39393920AF
:10285000746F20726573746172742E202854656DD4
:102860007065726174757265206973207265736535
:10287000742E20536574206974206166746572201B
:1028800072657374617274696E67290A004E6F20F5
:10289000436865636B73756D2077697468206C6934
:1028A0006E65206E756D6265722C204C61737420AC
:1028B0004C696E653A20004E6F20436865636B7308
:1028C000756D2077697468206C696E65206E756D12
:1028D0006265722C204C617374204C696E653A20DD
:1028E00000636865636B73756D206D69736D6174EA
:1028F00063682C204C617374204C696E653A20002B
:102900004C696E65204E756D626572206973206E2C
:102910006F74204C617374204C696E65204E756D28
:102920006265722B312C204C617374204C696E658A
:102930003A20004D313130004D3331005344207284
:10294000656164206572726F720A00446F6E652063
:102950007072696E74696E672066696C650A0050F2
:10296000726F6265205A204F666673657400436F0C
:102970006E74726F6C0043616E6E6F7420656E745E
:102980006572207375626469723A2000022E2E000F
:102990000152656672657368004D61696E004D375E
:1029A000303220542564004D3630302042302054DF
:1029B0002564004D373032203B2564004D373031DF
:1029C00020542564004368616E67652066696C6108
:1029D0006D656E7400507265686561742041425384
:1029E000005072656865617420504C410043686115
:1029F0006E67652066696C616D656E740050524942
:102A00004E542050415553454400554E4C4F41447F
:102A10002046494C414D454E54004C4F41442046C0
:102A2000494C414D454E54005075726765206D6F9D
:102A3000726500436F6E74696E756500524553553B
:102A40004D45204F5054494F4E533A0020204E6F71
:102A50007A7A6C653A20006368616E6765006F661C
:102A6000207468652066696C616D656E74005761DD
:102A7000697420666F722073746172740020204E36
:102A80006F7A7A6C653A2000200066696C616D652A
:102A90006E7420756E6C6F61640057616974206696
:102AA0006F72004572726F722077726974696E6717
:102AB00020746F20454550524F4D210A0000000000
:102AC000010200090A0000000004030807000000DA
:102AD0000000000000000000000000000054483327
:102AE0004420455A41424C2052656164792E005081
:102AF00072696E74696E672E2E2E005072696E7444
:102B000020706175736564004D313235004D32348B
:102B1000005072696E742061626F72746564004D5A
:102B20003231004E6F205344206361726400436869
:102B3000616E67652053442063617264004D3231D9
:102B4000005072696E742066726F6D20534400539A
:102B5000746F70207072696E7400526573756D6564
:102B6000207072696E7400496E69742E205344207F
:102B700063617264005061757365207072696E7470
:102B800000436F6E74726F6C005072657061726595
:102B90000054756E6500496E666F207363726565DB
:102BA0006E000E000E000E000E000E000E000E0055
:102BB0000E007FC03F801F000E00040004000E00C6
:102BC0001F003F807FC00E000E000E000E000E00A2
:102BD0000E000E000E0003F8000FFE001E0F00385E
:102BE0000700380380700380700FE07007C0700327
:102BF000807001007000003800003807001E0F00D0
:102C00000FFE0003F80000FE0003FF800783C00EE4
:102C100001C00E00E01C00E07F00E03E00E01C0070
:102C2000E00800E00000E00001C00E01C00F0780D6
:102C300007FF0001FC00FFFFFF7F80FFC0FFC0FF18
:102C4000C07F807F80FFC0FFC0FFC03F001E000C20
:102C50000050726F6265205A204F6666736574007B
:102C6000526573656E643A200000D6D2B5D2112445
:102C70001FBECFEFD0E4DEBFCDBF12E0A0E0B1E0D9
:102C8000EAE7F3ED01E00BBF02C007900D92A63515
:102C9000B107D9F723E1A6E5B2E001C01D92A53046
:102CA000B207E1F716E1C6E3D6E104C02197FE01C1
:102CB0000E941CE9C533D107C9F70E9468D30C9460
:102CC000B0E90C9400002F923F924F925F926F9266
:102CD0007F928F929F92AF92BF92CF92DF92EF92AC
:102CE000FF920F931F93CF93DF93CDB7DEB7C254FC
:102CF000D1090FB6F894DEBF0FBECDBF21E02093FF
:102D0000B50680917C128D3409F467C3843511F4C3
:102D10000C946725873411F00C94B32580917A12B6
:102D200090917B128D31910509F435C184F4843082
:102D3000910509F4B2C01CF4029788F14AC38B31A3
:102D4000910509F4E9C04C9709F40EC142C38A35D4
:102D5000910509F4CAC244F48E31910509F41FC1EA
:102D60008A9709F4F5C135C38B35910509F4C1C2C1
:102D70008C35910509F02DC397E5292E91E0392E68
:102D800023E7E22E22E0F22E84EF96E099A788A7AF
:102D900034EEC32E36E0D32E00E010E0E9C280917D
:102DA0001701882311F40C94B52557E5852E51E0C1
:102DB000952E68EBE62E66E0F62E04EF16E074EE34
:102DC000A72E76E0B72EE6E5CE2EE2E0DE2E712CC1
:102DD000D4018D914D010E947FB7882319F10E9483
:102DE0004CB7F6012081211104C020915A02222300
:102DF00041F0D8012D913D914D915C910E94E7E603
:102E00000AC0B3E07B1639F0F5012081318142819F
:102E100053810E94E6E6D7016D937D938D939C9339
:102E200013970AC0F80180819181A281B381F701D3
:102E300080839183A283B3837394F4E0EF0EF11C3B
:102E40000C5F1F4F24E0A20EB11C3FEFC31AD30A40
:102E500044E07412BDCF86E40E94C8B78823C9F04D
:102E60000E944CB720E030E0A9010E946AE81816E1
:102E700084F40E944CB720E030E040E752E40E9426
:102E80006AE760932001709321018093220190935F
:102E900023010E94CD2F0C94B52580E50E94C8B770
:102EA000882329F00E9408B76B017C0103C0C12C64
:102EB000D12C760183E50E94C8B7882361F00E9477
:102EC0004CB720E030E04AE754E40E9493E00E94CF
:102ED000E3E76B017C010E9480568091B60281116C
:102EE00005C060E085E692E00E9447860E94EBCA3A
:102EF000C60ED71EE81EF91E0E94EBCADC01CB01EC
:102F00008C199D09AE09BF09B7FD02C00C94B52507
:102F100080E00E944C2EF0CF0E94FE6981110C943B
:102F2000B52580E090E0A0E2B1E489839A83AB8389
:102F3000BC838D839E83AF83B88789879A87AB874D
:102F4000BC8780E50E94C8B7882319F00E9418B793
:102F500001C060E068A3BE016F5F7F4FCE01809625
:102F60000E9465A80C94B5258091E3068770873090
:102F700011F00C94BA258FE40E94C8B7882319F089
:102F80000E943CB703C08FE40E947FB781110C946C
:102F9000B5250C94BA250E94358F0C94B525C090A8
:102FA000F406D090F506E090F606F090F70688E576
:102FB0000E94C8B7811109C020E030E040E352E42C
:102FC000C701B6010E94E6E602C00E944CB768A3A2
:102FD00079A38AA39BA3C090F806D090F906E0904D
:102FE000FA06F090FB0689E50E94C8B7811109C076
:102FF00020E030E040E251E4C701B6010E94E6E67D
:1030000002C00E944CB79B01AC0169837A838B8319
:103010009C8368A179A18AA19BA10E94412D88234C
:1030200011F40C94B52580E00E94108C0E94A78CAE
:1030300085E40E94C8B7882321F00E943CB7182F6E
:1030400004C085E40E947FB711E086E50E94C8B7FE
:10305000882321F00E9418B7262F01C021E0412FBC
:10306000BE016F5F7F4FCE0180960E94EB6B6B01BC
:103070007C019B01AC010E94E8E881115FC088A03F
:1030800099A0AAA0BBA020E030E0A901C501B4012D
:103090000E942DE087FF05C027E137EB41E558EBA3
:1030A00004C027E137EB41E558E3C501B4010E94B4
:1030B000E7E6AB01BC0185E992E00E942FCF898051
:1030C0009A80AB80BC8020E030E0A901C501B4014A
:1030D0000E942DE087FF05C027E137EB41E558EB63
:1030E00004C027E137EB41E558E3C501B4010E9474
:1030F000E7E6AB01BC0180E992E00E942FCF20E01F
:1031000030E0A901C701B6010E942DE087FF05C08C
:1031100027E137EB41E558EB04C027E137EB41E508
:1031200058E3C701B6010E94E7E6AB01BC018BE89A
:1031300092E00E942FCF8AE00E94EFB70E948E8C0F
:10314000113011F40E94FA8D0E94DB5B0C94B525BE
:1031500080911701882311F40C94B52589E40E940D
:10316000C8B7082F882321F00E9418B7E62E01C0A7
:10317000E12C8AE40E94C8B7182F882321F00E940E
:1031800018B7F62E01C0F12C002319F052E05E159D
:1031900028F0112389F082E08F1570F4EDE9F2E058
:1031A00084918F010F5F1F4F882311F40C94B52574
:1031B0000E94EFB7F801F4CF0E94DBB70023F1F0D3
:1031C0002091870B3091880B4E2D4203B001439F15
:1031D000700D112480913A0B90913B0B680F791F71
:1031E000072E000C880B990B0E9434E06093B80600
:1031F0007093B9068093BA069093BB061123F1F041
:103200002091890B30918A0B5F2D5203B001539F9F
:10321000700D112480913C0B90913D0B680F791F2C
:10322000072E000C880B990B0E9434E06093BC06BB
:103230007093BD068093BE069093BF0680E50E9402
:10324000C8B78823E9F00E943CB78823A9F100237E
:10325000D9F020E030E040E352E46091B80670918C
:10326000B9068091BA069091BB060E94E7E660938A
:10327000B8067093B9068093BA069093BB0604C053
:1032800080E50E947FB7E1CF1123B1F020E030E06C
:1032900040E251E46091BC067091BD068091BE068B
:1032A0009091BF060E94E7E66093BC067093BD064E
:1032B0008093BE069093BF0686E40E94C8B7882319
:1032C00009F4E7CD0E944CB76B017C0120E030E0AF
:1032D000A9010E946AE818160CF0DBCD20E030E06E
:1032E00040E752E4C701B601CACD10925A020C94CD
:1032F000B52520935A020C94B5250E944CB72B019A
:103300003C01133049F0F601208131814281538123
:103310000E94E6E62B013C01A8A5B9A52D913D919F
:103320004D915C91C301B2010E94E6E64B015C0144
:103330002DEB37E346E855EB0E946AE887FD20C095
:103340002DEB37E346E855E3C501B4010E942DE0BB
:103350001816B4F01F5FB4E0EB0EF11CE8A5F9A558
:103360003496F9A7E8A7F4E0CF0ED11C143039F158
:10337000D1018D911D010E94C8B7882359F3BDCF9B
:10338000133051F4409200075092010760920207F7
:103390007092030701E0DECFA5019401F70160817F
:1033A0007181828193810E94E7E6D7016D937D93BD
:1033B0008D939C931397812F0E94B393CBCF0023BF
:1033C00021F080E097E00E949B690E94DB5B0C94F7
:1033D000B5250E9406700C94B52580917A129091C3
:1033E0007B128E36910509F4CFC40CF09CC080325C
:1033F000910509F494C30CF04AC08731910509F492
:103400001CC24CF58231910509F4ECC5BCF497FF60
:1034100002C00C946425823091050CF44EC1419792
:1034200011F00C94642560E08FEC92E00E944786D6
:103430005E985E9815985E980C94B5258531910537
:1034400009F4F1C10CF0F3C1449711F00C94642518
:10345000E7EEF2E0AAC18B31910509F449C23CF4D0
:103460008931910509F428C20CF4FDC133C28D31B4
:10347000910511F40C94B5250CF4B5C28E3191056B
:1034800009F4BBC24F9709F496C30C9464258335A5
:10349000910509F4A4C524F58C34910509F44EC4B2
:1034A00084F48934910509F43BC48B34910509F403
:1034B00042C4C09711F00C9464250E94A55C0C9442
:1034C000B5258135910509F473C50CF085C58D349A
:1034D000910511F00C9464250E9447410C94B52588
:1034E0008936910509F467C474F48C35910509F4A3
:1034F000ACC58836910509F424C48435910511F0D2
:103500000C9464256FC58B36910509F4C3C40CF483
:10351000A5C48C36910509F448C48D36910509F48B
:1035200065C40C9464258D3231E0930711F40C943A
:1035300005230CF050C08C38910509F46BC414F5C8
:103540008537910509F452C68CF48237910509F448
:1035500005C68337910509F4ADC08037910511F098
:103560000C94642588EA93E00E94DE2D873791054C
:1035700009F498C60CF449C68D37910509F49AC42C
:103580000C9464258C3C910509F4CEC674F4893CF6
:10359000910509F48AC68B3C910509F4A9C68E3BB6
:1035A000910511F00C9464254BC48C3D910509F4F0
:1035B000AFC734F48D3C910509F42BC70C946425F6
:1035C0008D3D910509F4B1C78232914011F40C94FC
:1035D000F8220C946425843FA1E09A0711F40C941E
:1035E000B524A4F58139E1E09E0711F40C94BE23C3
:1035F000A4F4833621E0920709F458C0803931E001
:10360000930711F40C94BB238F32914011F00C946A
:1036100064250E94A0570C94B5258A3951E095077E
:1036200009F4C6C3843AA1E09A0711F40C94C423A8
:103630008239914011F00C94642580E00E94938EB1
:103640000E94FA8D0E94DB5B0C94B525883FE1E077
:103650009E0711F40C94C7246CF4863F21E0920776
:1036600011F40C94B82414F00C94BB240E944FAEB7
:103670000C94B525833543E0940711F40C94EA24A7
:103680004CF48835924011F00C9464250E9435600A
:103690000C94B525803AB3E09B0709F47FC2873EBE
:1036A000934011F40C944F250C946425E4ECF7E05E
:1036B0000C94A823EAE0F4E08EC5A0907812B090B4
:1036C000791280E50E94C8B7882359F00E9408B794
:1036D0006B017C0111E0672B682B692B31F410E042
:1036E00004C010E0C12CD12C760183E50E94C8B73C
:1036F000882311F40C947E270E944CB720E030E020
:103700004AE754E40E9493E00E94E3E76B017C01E6
:1037100011110BC0672B682B692B39F4A114B1046C
:1037200021F0D5018C91811102C010E001C011E09F
:103730000E948056112329F061E0C5010E94818614
:1037400005C060E08CEB92E00E94478683E08093A6
:10375000B50681E08093B406C114D104E104F104FC
:10376000B1F00E94EBCAC60ED71EE81EF91E0E94D9
:10377000EBCADC01CB018C199D09AE09BF09B7FF6B
:103780000EC08091B40681110C94832708C08091EB
:10379000B406882321F080E00E944C2EF8CF0E94CE
:1037A00096CC1092B4060C94B52584918F010F5FCE
:1037B0001F4F882321F00E94EFB7F801F6CF109237
:1037C000B60589E693E00E94C0B08BE1E9E6F3E03C
:1037D000DE01159601900D928A95E1F780916703BD
:1037E000909168039C838B838FE591E09A83898312
:1037F00040E050E0BE016F5F7F4F80E090E00E94AC
:103800003539CE0101960E94C22DE8EDF2E0849197
:103810008F010F5F1F4F882311F40C94B5250E9470
:10382000EFB7F801F4CF0E94906A0C94B52510927E
:103830003803109239030C94B525E0917812F09179
:1038400079128081882329F0803209F41082319620
:10385000F8CF40E061E080917812909179120E9457
:10386000FA3B0C94B52580E090E0A8E4B2E48983AB
:103870009A83AB83BC8318A219A21AA21BA21CA212
:103880001DA21EA21FA28091B302882351F0AE0197
:103890004F5F5F4FBE01605E7F4FCE0184960E94F6
:1038A000896E80913903882319F081E08093380371
:1038B0000E940E410C94B525109238030E943241AB
:1038C00088EF92E09093AC068093AB060E9461B6BD
:1038D0000C94B52580913903882311F40C94B525F7
:1038E00083E50E94C8B781110C9488270C94B525F4
:1038F00083E40E947FB78823A1F1EAE2F3E0849198
:103900008F010F5F1F4F882321F00E94EFB7F8014E
:10391000F6CF80910405811103C0EDEFF2E012C0F3
:10392000BE016F5F7F4F81E095E00E9487AF8E01FF
:103930000F5F1F4FF80181918F01882369F00E946A
:10394000EFB7F8CF84918F010F5F1F4F882321F0CD
:103950000E94EFB7F801F6CF8AE00E94EFB70C940F
:10396000B52580913903882339F080913803882365
:1039700019F0E7E0F3E003C0E9E1F3E028C0849147
:103980008F010F5F1F4F882321F00E94EFB7F801CE
:10399000F6CF6091B2057091B3058091B405909116
:1039A000B5054AE00E949EBA8FE20E94EFB760918F
:1039B000AE057091AF058091B0059091B1054AE0D8
:1039C0000E949EBA8AE00E94EFB70C94B5258491BC
:1039D0008F010F5F1F4F882311F40C94B5250E94AF
:1039E000EFB7F801F4CF40E060E080917812909159
:1039F00079120E94FA3B0C94B525809139038823F3
:103A000011F40C94B52581E095E00E9499C681E0FF
:103A100095E00E9462AF10923703109236038091B6
:103A20003903882311F40C94B52500917812109174
:103A300079120E942639B801CE0180960E943E3B41
:103A40008C01892B11F40C94B52568A179A161151D
:103A5000710511F06C5F7F4F19821C8222E0A80172
:103A6000CE0101960E9411B5811102C0F12C14C043
:103A7000CE0101960E9494388823C1F361E0CE0103
:103A800001960E946BAF009789F325EEDC012C9321
:103A90001C820E943EC4F82ECE0101960E94D5B72A
:103AA000F11003C0E7E4F3E022C0E9E3F3E084911E
:103AB0007F01BFEFEB1AFB0A882321F00E94EFB7CA
:103AC000F701F5CFF80181918F01882319F00E9449
:103AD000EFB7F8CF8AE00E94EFB71092B2051092CC
:103AE000B3051092B4051092B5050C94B5258491D8
:103AF0007F012FEFE21AF20A882321F00E94EFB72C
:103B0000F701F5CFD8018D918D01882319F00E941E
:103B1000EFB7F8CF8EE20E94EFB70C94B5258091F5
:103B2000380381110E94805680913903882311F453
:103B30000C94B52580E50E94C8B7882319F00E942F
:103B40003CB703C080E50E947FB7182F482F61E083
:103B500080917812909179120E94FA3B83E50E943D
:103B6000C8B7882381F00E9418B7AB01BC0140930D
:103B7000B2055093B3056093B4057093B50581E029
:103B800095E00E9478AE80913903882319F081E096
:103B90008093380311110C94B5258ACE8091781248
:103BA0009091791221E02093370340E060E00E9479
:103BB000FA3B0C94B5250E94BF407B018C0120E8A4
:103BC00031E541E050E00E9483E6C9016DE671E015
:103BD0000E94F4E84B015C01C801B70120E13EE01E
:103BE00040E050E00E9483E6CA01B90128E130E0DC
:103BF00040E050E00E9483E6762E672EC62ED72E38
:103C00008CE3282E312C412C512CC801B701A20184
:103C100091010E9483E6F62EE72ECA01B901A201A6
:103C200091010E9483E6CB018E010F5F1F4F81142B
:103C3000910499F0EF92FF927F936F936F927F922E
:103C4000BF92AF929F928F9287E893E09F938F935A
:103C50001F930F930E94C5DF13C0A114B104B1F0EC
:103C6000EF92FF927F936F936F927F92BF92AF928A
:103C700087E793E09F938F931F930F930E94C5DF75
:103C80000FB6F894DEBF0FBECDBF30C0CD2879F09F
:103C9000EF92FF927F936F936F927F928BE693E008
:103CA0009F938F931F930F930E94C5DFE9CF892BBA
:103CB00069F0EF92FF927F936F9383E693E09F9377
:103CC0008F931F930F930E94C5DFDACFEF92FF927D
:103CD0008FE593E09F938F931F930F930E94C5DF0F
:103CE0000F900F900F900F900F900F9060E0C80111
:103CF0000E948186E3EFF7E084917F019FEFE91A4C
:103D0000F90A882321F00E94EFB7F701F5CFB80137
:103D10008BE993E00E9465CF8AE00E94EFB725C748
:103D200080913803811121C780E50E947FB78111FE
:103D30000C9499271AC70E940E4117C70E9432415E
:103D400014C788E690E00E94F39381110EC783E5C3
:103D50000E94C8B7882309F408C70E944CB70E9484
:103D6000DCE7CB010E94E2850E944CB720E030E006
:103D70004AEA52E40E942DE018160CF4F6C60E949E
:103D800047410E9496CCF1C68EE40E94C8B78823B2
:103D900009F4EBC60E9418B7609333097093340995
:103DA0008093350990933609E0C610921B01DDC659
:103DB0000E946357DAC689E690E00E94F39381116E
:103DC00011C0E1EBF3E084918F010F5F1F4F882357
:103DD00021F00E94EFB7F801F6CF0E943F648AE01D
:103DE0000E94EFB71092B5060C94BF2B8DE690E0C1
:103DF0000E94F3938111B9C683E50E94C8B788ABCE
:103E000081110C94A42782E50E94C8B781110C94FB
:103E1000A427ABC683E50E94C8B7882309F4A5C6CA
:103E20000E944CB70E94DCE76337710514F063E72A
:103E300070E07093340C6093330C0E946E6695C6EC
:103E400083E50E94C8B78AAF81110C949B2982E553
:103E50000E94C8B781110C949B2987C680E50E94F7
:103E6000C8B7811106C083E50E94C8B7882359F0FE
:103E700005C00E9428B7811178C6F5CF0E9418B7F7
:103E80006F3F710510F06FEF70E07093360C609328
:103E9000350C6BC680E50E94C8B7811105C0109231
:103EA000360C1092350C61C60E9418B7672B09F0CA
:103EB0005CC6F5CF8CE40E947FB7882381F00E9416
:103EC0004CB76B017C0120E030E0A9010E946AE858
:103ED00087FF0AC0F7FAF094F7F8F09405C0C12CF8
:103EE000D12CE12CF0E4FF2EF7FAF094F7F8F094DF
:103EF000CCA2DDA2EEA2FFA280E090E0A0E2B1E4BD
:103F000089839A83AB83BC838D839E83AF83B88779
:103F100089879A87AB87BC8788E50E94C8B78823C2
:103F200079F088E50E94C8B7882319F00E944CB741
:103F300003C060E070E0CB0169837A838B839C834C
:103F400089E50E94C8B7882379F089E50E94C8B73F
:103F5000882319F00E944CB703C060E070E0CB01E9
:103F60006D837E838F8398878AE50E94C8B78823F4
:103F700079F08AE50E94C8B7882319F00E944CB7EF
:103F800003C060E070E0CB0169877A878B879C87EC
:103F900018A219A21AA21BA220E0AE01405E5F4F38
:103FA000BE016F5F7F4FCE0184960E94065FDDC524
:103FB0000E943B670E94BE561092360C1092350C40
:103FC00068EE73E080E090E00E948D7360E084EF23
:103FD00093E00E944786C9C510925902C6C5209336
:103FE0005902C3C583E50E94C8B7882399F00E948F
:103FF0004CB720E030E04AE754E40E9493E00E948E
:10400000E3E760930A0170930B0180930C01909396
:104010000D01ABC588E50E947FB781110C94C62ABB
:1040200089E50E947FB781110C94C62A8AE50E9417
:104030007FB781110C94C62A85E40E947FB7811155
:104040000C94C62A0E94BE5690C577E5C72E71E033
:10405000D72EE1E2EE2EE9E0FE2E10E0F60181918E
:104060006F010E947FB7882309F46EC0133009F0F6
:1040700063C00E944CB74B015C0120E030E040EA95
:1040800051E40E942DE087FF4EC0A501940160918C
:104090002D0970912E0980912F09909130090E946D
:1040A0006AE72B013C019B01AC01609150067091C5
:1040B000510680915206909153060E9493E06093BE
:1040C0005006709351068093520690935306A301B5
:1040D0009201609168067091690680916A069091DC
:1040E0006B060E9493E06093680670936906809364
:1040F0006A0690936B066091760D7091770D8091B2
:10410000780D9091790D0E9432E0A30192010E94F6
:1041100093E00E94E3E76093760D7093770D8093B0
:10412000780D9093790D80922D0990922E09A0928E
:104130002F09B092300908C00E944CB7D7016D9387
:104140007D938D939C9313971F5FB4E0EB0EF11C4E
:10415000143009F083CF0E94B5D007C50E94805665
:1041600083E50E94C8B7882309F42FC90E9418B7B5
:104170006230710509F029C90E940A348BE50E945A
:10418000EFB7609163027091640280916502909133
:10419000660242E00E9427BB40916702509168028C
:1041A0006091690270916A0287E094E00E942FCFCB
:1041B00040916B0250916C0260916D0270916E02A1
:1041C00084E094E00E942FCF8DE50E94EFB78AE053
:1041D0000E94EFB7CAC484918F010F5F1F4F8823DD
:1041E00009F4C3C40E94EFB7F801F5CF80917812AB
:1041F00090917912FC012081222321F060E00E943D
:104200008186B3C40E9496CCB0C4009178121091FC
:10421000791283E0D12C40E08150E9F0D8019C91E3
:10422000292F2B7F2134C1F711962C912133A1F72F
:10423000913421F0953421F441E002C0DD24D3947F
:1042400098012E5F3F4F89012F5F3F4FF80190810A
:104250009032C9F3E1CF442369F0E3EFF7E08491B2
:104260007F012FEFE21AF20A882321F00E94EFB7B4
:10427000F701F5CFDD2069F0E3E8F4E084917F01F8
:104280003FEFE31AF30A882321F00E94EFB7F7010A
:10429000F5CFD8018D918D01882309F45DCB0E9463
:1042A000EFB7F7CF0E9478A960C457E5E52E51E03B
:1042B000F52E0AE71DE06AE8C62E6DE0D62EF7015E
:1042C00081917F010E947FB7882351F00E944CB7F3
:1042D0000E94E3E7D8016D937D938D939C93139790
:1042E0000C5F1F4FC016D10651F70E9480CF3DC40E
:1042F00047E5E42E41E0F42E0CE516E0F70181914C
:104300007F010E947FB7882341F00E944CB7D801FB
:104310006D937D938D939C9313970C5F1F4FB6E025
:104320000C361B0759F721C483E50E94C8B78823C0
:10433000A1F00E944CB76093580670935906809381
:104340005A0690935B0660935406709355068093CB
:1043500056069093570610E001C011E080E50E94D8
:10436000C8B7882359F00E944CB7609358067093E1
:10437000590680935A0690935B0610E082E50E94EE
:10438000C8B7882359F00E944CB76093B006709369
:10439000B1068093B2069093B30610E084E50E94C4
:1043A000C8B7882359F00E944CB7609354067093A5
:1043B00055068093560690935706D7C3112309F4E8
:1043C000D4C3409158065091590660915A06709195
:1043D0005B068DE894E00E942FCF4091B00650918B
:1043E000B1066091B2067091B3068AE894E00E942B
:1043F0002FCF40915406509155066091560670910A
:10440000570687E894E00E942FCF8AE00E94EFB71A
:10441000ACC381E50E947FB7882351F00E9408B7A2
:1044200060936C0670936D0680936E0690936F0692
:1044300083E50E947FB7882351F00E944CB76093B8
:10444000740670937506809376069093770684E5DC
:104450000E947FB7882351F00E944CB7609370068A
:1044600070937106809372069093730688E50E949C
:104470007FB7882351F00E944CB760934406709335
:104480004506809346069093470689E50E947FB7CC
:10449000882351F00E944CB76093480670934906F8
:1044A00080934A0690934B068AE50E947FB7882343
:1044B000F1F00E944CB760934C0670934D068093C8
:1044C0004E0690934F062DEC3CEC4CEC5DE30E94C5
:1044D0002DE0181664F0EDE9F4E084918F010F5F90
:1044E0001F4F882321F00E94EFB7F801F6CF85E433
:1044F0000E947FB7882309F438C30E944CB76093A9
:1045000050067093510680935206909353062DC324
:1045100083E50E94C8B7882309F427C30E9418B70F
:10452000709334016093330120C38DED90E00E94BD
:10453000F39381111AC383E50E94C8B7811103C0A8
:10454000E3EFF7E02FC00091920610E00E9418B749
:10455000000F111FF801EF5CFE4F718360838091A3
:10456000920690E08C01000F111F000F111F035DD8
:104570001E4F880F991FFC01EF5CFE4F6081718117
:10458000072E000C880B990B0E9434E02AE037EDCF
:1045900043E25CE30E9493E0F801608371838283CD
:1045A0009383E3C284918F010F5F1F4F882321F013
:1045B0000E94EFB7F801F6CF85E40E94EFB7809133
:1045C0009206805D0E94EFB7E0919206F0E0EE0F58
:1045D000FF1FEF5CFE4F608171818FEC94E00E94C1
:1045E0004CCF85E20E94EFB78AE00E94EFB7BDC2D0
:1045F0008AE50E94C8B781110C94EB2A83E50E94DA
:10460000C8B781110C94EB2AB0C285E40E94C8B7E8
:10461000811110C080E50E947FB7882391F00E942D
:104620004CB76093DB0A7093DC0A8093DD0A9093A9
:10463000DE0A07C00E9428B7882361F3E4ECF7E0A4
:1046400071C089E40E947FB7882381F00E944CB733
:104650002CEA35EC47E25EE30E9493E06093E30AC4
:104660007093E40A8093E50A9093E60A84E40E943A
:104670007FB7882381F00E944CB72CEA35EC47E2E3
:104680005EE30E946AE76093DF0A7093E00A80931A
:10469000E10A9093E20AE3EFF7E084918F010F5F64
:1046A0001F4F882321F00E94EFB7F801F6CF409109
:1046B000DB0A5091DC0A6091DD0A7091DE0A80EF1E
:1046C00094E00E942FCF2CEA35EC47E25EE3609144
:1046D000E30A7091E40A8091E50A9091E60A0E944B
:1046E0006AE7AB01BC018CEE94E00E942FCF2CEA6C
:1046F00035EC47E25EE36091DF0A7091E00A809159
:10470000E10A9091E20A0E9493E0AB01BC0188EEBD
:1047100094E00E942FCF8AE00E94EFB726C20E9449
:10472000EFB7F80184918F010F5F1F4F8111F7CF11
:10473000E4EFF4E084918F010F5F1F4F882309F4A9
:1047400014C20E94EFB7F801F5CF0E94EFB7F8014D
:1047500084918F010F5F1F4F8111F7CFE6E0F5E0E5
:1047600084918F010F5F1F4F882309F4FEC10E94BF
:10477000EFB7F801F5CF0E948056F7C181E00E94A3
:10478000938E0E94DB5BF1C183E50E947FB7882393
:1047900049F00E943CB7C82E811106C080E00E94FB
:1047A000108C02C0C09043068091F4069091F506EB
:1047B000A091F606B091F70689839A83AB83BC83F8
:1047C0008091F8069091F906A091FA06B091FB0647
:1047D0008D839E83AF83B8878091FC069091FD0600
:1047E000A091FE06B091FF0689879A87AB87BC87A8
:1047F0008091870B9091880B892B09F466C783E41D
:104800000E947FB7882309F460C70E944CB71B0140
:104810002C0153E058A7912CA12C88ECB82E02EC67
:10482000612C812C88EC8CA792E498ABF8A5F15010
:10483000F8A7FF3F09F441C0E3E07E2E8F2F90E000
:104840009C01220F331FA901480F591F5AAB49ABD6
:104850007A945FEF751651F3E9A9FAA9E70DF11DF6
:10486000EE0FFF1FEE0FFF1FE557F44FD080E180E2
:10487000F2801381262D382D4CA558A96D2D7E2D43
:104880008F2D912F0E942DE087FF04C06D2C8E2C60
:10489000FCA618AB292D3A2D4B2D502F6D2D7E2DBA
:1048A0008F2D912F0E946AE818161CF0D92C7501E3
:1048B000102F9D2C5701012FCBCF292D3A2D4B2D99
:1048C000502F662D782D8CA598A90E94E7E620E050
:1048D00030E040E05FE30E9493E0A20191010E947A
:1048E000E7E62B013C012DEB37E346E855EB0E9450
:1048F0006AE887FD0BC02DEB37E346E855E3C301BB
:10490000B2010E942DE018160CF0DFC680E00E9474
:10491000108C63E0B62EBA948FEFB81609F4D5C6A2
:1049200043E0D42E8B2D90E07C01EE0CFF1CE80EB2
:10493000F91EDA949FEFD91671F387010D0D111D41
:10494000000F111F000F111F0557144FA3019201F3
:10495000D8016D917D918D919C910E94E6E6F801C0
:104960006083718382839383E4CF0E94209AFDC089
:104970000E9430ADFAC083E50E947FB7882321F002
:104980000E943CB791E089270E94B5A9EEC0209310
:104990007E0B0E94569410927E0B882309F4E5C08A
:1049A000E3EFF7E084918F010F5F1F4F811103C088
:1049B000E2E4F5E004C00E94EFB7F801F3CF849180
:1049C0008F010F5F1F4F882309F4CFC00E94EFB7FC
:1049D000F801F5CF8AE50E94C8B7811103C0E3EF63
:1049E000F7E03BC00E944CB76B017C0120E030E057
:1049F00040EA50EC0E946AE887FD0AC020E030E0FF
:104A000040E85FE3C701B6010E942DE018161CF4D0
:104A1000E4ECF7E00CC0C092F006D092F106E09210
:104A2000F206F092F306A1C00E94EFB7F80184915C
:104A30008F010F5F1F4F8111F7CFEDE4F5E08491F7
:104A40008F010F5F1F4F882309F48FC00E94EFB7BB
:104A5000F801F5CF0E94EFB7F80184918F010F5F45
:104A60001F4F8111F7CFEBE6F5E084918F010F5FC7
:104A70001F4F882321F00E94EFB7F801F6CF409135
:104A8000F0065091F1066091F2067091F30688E607
:104A900095E00E942FCF8AE00E94EFB766C081E0C8
:104AA000809317011092100983E50E94C8B78823EC
:104AB00039F00E943CB7811158C00E9428D155C0DE
:104AC00083E50E947FB7F7CF0E9406704EC0F0903A
:104AD0007A120E9480561091430680E00E94108C4A
:104AE000FF2029F1E3EFF7E084918F010F5F1F4F63
:104AF000882321F00E94EFB7F801F6CF84E50E94E9
:104B0000EFB76F2D70E080E090E04AE00E949EBA1F
:104B100080E20E94EFB7ECE8F5E084918F010F5F2F
:104B20001F4F882311F10E94EFB7F801F6CF1092C2
:104B3000DC06812F0E94108CE3EFF7E084918F0157
:104B40000F5F1F4F882321F00E94EFB7F801F6CFC7
:104B50006091DC0670E08AE795E00E944CCF8AE025
:104B60000E94EFB702C00E9406701092B5060E9424
:104B7000213605C60E948056F0914306F9AF80E0C9
:104B80000E94108C0E94A78C11E01093400988E5C8
:104B90000E947FB7382E89E50E947FB7282E8AE5CC
:104BA0000E947FB788AB311005C0211005C058A9FD
:104BB000152705C0211002C010E001C018A90E94ED
:104BC000DBB782E50E94C8B7882361F00E944CB72A
:104BD0006B017C0120E030E0A9010E942DE08823D8
:104BE00071F105C0C12CD12C40E4E42EFE2C111132
:104BF00005C0311003C0222009F40CC1C092C006C8
:104C0000D092C106E092C206F092C306A7019601B7
:104C10006091FC067091FD068091FE069091FF0662
:104C20000E942DE087FF0BC019821A821B821C8212
:104C3000BE016F5F7F4F80EC96E00E94DB8D11110B
:104C40000DC0311003C02110E0C0E4C0211006C027
:104C500080E00E94E02B1123B1F3D7C01092F80638
:104C60001092F9061092FA061092FB061092F406C2
:104C70001092F5061092F6061092F7060E94C1B641
:104C8000E3ECF6E084918AAFE7EBF6E0C590D590CF
:104C9000E590F490EBEBF6E085909590A590B490BC
:104CA000A7019601C501B4010E942DE087FF05C050
:104CB000A7019601C501B40104C0A5019401C70173
:104CC000B6010E946AE72B013C01EAE7F6E0259174
:104CD00035914591549128A739A74AA75BA7E6E7E4
:104CE000F6E085919591A591B4918CA79DA7AEA76B
:104CF000BFA79C01AD0168A579A58AA59BA50E94C7
:104D00006AE8181644F49CA599ABADA5ADAB0EA509
:104D1000BFA5B8A707C0E8A5E9ABF9A5FDAB0AA5F3
:104D20002BA528A7A3019201C301B2010E9493E021
:104D300020E030E040E85FE30E94E7E60E94A8E858
:104D400029A93DA9402F58A50E9493E06CA37DA3FB
:104D50008EA39FA3E4ECF6E0049120E030E040EC69
:104D60005FE3C501B4010E9493E04B015C01602F39
:104D7000000F770B880B990B0E9434E09B01AC016C
:104D8000C501B4010E9493E069837A838B839C837D
:104D900020E030E040EC5FE3C701B6010E9493E001
:104DA0006B017C013AAD632F330F770B880B990BA6
:104DB0000E9434E09B01AC01C701B6010E9493E060
:104DC00068A379A38AA39BA3AE014C5D5F4FBE018C
:104DD0006F5F7F4FCE0180960E94B98D0E94AAA975
:104DE0001092F8061092F9061092FA061092FB063D
:104DF0001092F4061092F5061092F6061092F7063D
:104E0000111126CF311024CF1ECF81E00E94E02B5C
:104E1000111104C048A9442309F45FC08091E3063E
:104E200083708330F1F060E08DE792E00E94478666
:104E3000E3EFF7E084918F010F5F1F4F811103C0F3
:104E4000EEE6F2E004C00E94EFB7F801F3CF8491E0
:104E50008F010F5F1F4F8823F1F10E94EFB7F80118
:104E6000F6CF0E94C1B68091FC069091FD06A091FC
:104E7000FE06B091FF068093C0069093C106A093F2
:104E8000C206B093C30680E090E0A1E2B3E4809351
:104E9000B8069093B906A093BA06B093BB0680E01B
:104EA00090E0AEEFB2E48093BC069093BD06A09371
:104EB000BE06B093BF0619821A821B821C82AE0105
:104EC0004F5F5F4F6CEB76E088EB96E00E94B98D08
:104ED00082E00E94E02B0E94FA8D0E94C1B6809170
:104EE0003F098093400989AD0E94108C0E948E8CEE
:104EF00083E0809324010E94DB5B37CE11110C9478
:104F0000951B0C948E1B80E00E944C2E0C94B71BBA
:104F10000E9418B7AB01BC014093B2055093B30592
:104F20006093B4057093B50581E095E00E9478AE7A
:104F30001CCE0E9428B7853620F084E68093430B70
:104F400014CE8093430B11CE0E944CB70E94DCE735
:104F5000CB010E94E2850E944CB720E030E04AEA93
:104F600052E40E942DE018162CF00E9447410E9446
:104F700096CC02C00E940E416091DD067091DE0663
:104F8000072E000C880B990B0E9434E06B017C010A
:104F90008090D8069090D906A090DA06B090DB06F3
:104FA000A50194010E946AE818165CF0A8A9A11155
:104FB00010C0A5019401C701B6010E946AE8181645
:104FC0001CF485EC93E002C088EB93E060E00E9463
:104FD000478681E080931B011092B5061DAA1EAA88
:104FE0001FAA18AE1BAE1CAE1DAE1EAE19AA1FAE78
:104FF0002CE321962FAF21973CE122963FAF2297D9
:1050000046E423964FAF2397C12CD12C90E8E92E8C
:105010002FEBF22E412C512C32016091DD06709164
:10502000DE06072E000C880B990B0E9434E0162F29
:10503000072F88A79CA79601A7010E942DE088232F
:10504000E1F02091D8063091D9064091DA065091CE
:10505000DB06B8A9612F702F88A59CA5B11107C0E8
:105060000E942DE0881F8827881F89AB0AC00E94F4
:105070002DE087FD58C119AA04C01C2D0D2DE8A6EE
:10508000FCA60E94EBCA6B017C01DC01CB012BADBD
:105090003CAD4DAD5EAD821B930BA40BB50BB7FDC4
:1050A0003BC0D701C60188519C4FAF4FBF4F8BAF5C
:1050B0009CAFADAFBEAF0E943F64E4EBF3E08491E0
:1050C0005F019FEFA91AB90A882321F00E94EFB768
:1050D000F501F5CF4114510461047104B9F0D30115
:1050E000C20188579C4EAF4FBF4FBC01CD016C1918
:1050F0007D098E099F0928EE33E040E050E00E94D0
:1051000083E6CA01B9010E940BBB03C08FE30E9472
:10511000EFB78AE00E94EFB780E00E944C2E0E9419
:10512000EBCA60936F027093700280937102909348
:1051300072022090D8063090D906A091DA06A9AF65
:10514000B091DB06BAAF9101AD01612F702F88A538
:105150009CA50E94E6E64B015C0120E030E0A9013D
:105160000E946AE887FF04C0B7FAB094B7F8B09419
:10517000411451046104710459F420E030E040E826
:105180005FE3C501B4010E942DE087FF0DC00AC096
:1051900020E030E040E450E4C501B4010E946AE838
:1051A000181614F426013701E9A9EE23F1F12DA90F
:1051B0003EA94FA958AD211531054105510541F0D2
:1051C000D701C601821B930BA40BB50BB7FD2DC0F5
:1051D000910149AD5AAD6FAD21967FAD21972296D1
:1051E0008FAD229723969FAD23970E94E6E620E09D
:1051F00030E040EC5FE30E942DE087FD94C0D701D2
:10520000C601805A9541AF4FBF4F8DAB9EABAFAB40
:10521000B8AF2FAE21963FAE219799AD22969FAFA2
:105220002297AAAD2396AFAF239780911B018823C5
:1052300009F479C0411451046104710429F4C12EA8
:10524000D02EE8A4FCA4E9CEB8E8CB1AB3E1DB0A7F
:10525000E108F108C418D508E608F708F7FE63C0AE
:10526000EECF411451046104710409F424C1D30147
:10527000C20188579C4EAF4FBF4FBC01CD016C1986
:105280007D098E099F0928EE33E040E050E00E943E
:1052900083E6CA01B9010E940BBB8AE00E94EFB706
:1052A00080E00E944C2E0E94EBCA60936F027093C4
:1052B0007002809371029093720220903F0B3090A5
:1052C000400BA091410BADABB091420BB9AF910136
:1052D000AD01612F702F88A59CA50E94E6E64B01C9
:1052E0005C0120E030E0A9010E946AE887FF04C069
:1052F000B7FAB094B7F8B094411451046104710442
:1053000009F0DDC020E030E040E85FE3C501B40112
:105310000E942DE087FDDEC0E8A9E111DEC080918A
:105320001B01811119C180911B01882309F41DCC37
:105330000E9496CC1ACC0E944CB70E94DCE76337DF
:1053400071050CF020C17093340C6093330C0E94F3
:105350006E660E944CB720E030E040EA50E40E94C4
:105360006AE8181614F40E940E416091330C709193
:10537000340C072E000C880B990B0E9434E020910E
:105380003F0B3091400B4091410B5091420B0E94DA
:105390006AE818161CF485EE93E002C086ED93E0EF
:1053A00060E00E94478681E080931B011092B50661
:1053B0008091DC068093920619AA1AAA1BAA1CAA3D
:1053C0001BAE1CAE1DAE1EAE18AA1FAEECE321969E
:1053D000EFAF2197FCE12296FFAF229726E42396B8
:1053E0002FAF2397C12CD12CA0E8EA2EBFEBFB2EC8
:1053F000412C512C32016091330C7091340C072EEA
:10540000000C880B990B0E9434E0162F072F88A7F9
:105410009CA79601A7010E942DE08823F1F020911E
:105420003F0B3091400B4091410B5091420B8AADA4
:10543000612F702F811109C088A59CA50E942DE0C5
:10544000881F8827881F88AB0CC088A59CA50E9450
:105450002DE087FD68CF18AA04C01C2D0D2DE8A6ED
:10546000FCA60E94EBCA6B017C01DC01CB012BADD9
:105470003CAD4DAD5EAD821B930BA40BB50BB7FDE0
:105480000FCFD701C60188519C4FAF4FBF4F8BAF95
:105490009CAFADAFBEAF0E943F64E2EDF3E08491FC
:1054A0005F019FEFA91AB90A882309F4DACE0E9496
:1054B000EFB7F501F4CF8FE30E94EFB7EECE20E017
:1054C00030E040E450E4C501B4010E946AE81816D7
:1054D0000CF022CF260137011FCF29A93AA94BA9E9
:1054E0005CA9211531054105510541F0D701C601DF
:1054F000821B930BA40BB50BB7FD11CF91014DA9E6
:1055000059AD6FAD21967FAD219722968FAD229731
:1055100023969FAD23970E94E6E620E030E040EC22
:105520005FE30E942DE087FDFECED701C601805AC1
:105530009541AF4FBF4F89AB9AABABABBCAB2FAE76
:1055400021963FAE21979DA922969FAF2297A9ADA4
:105550002396AFAF2397E3CE411451046104710445
:1055600029F4C12ED02EE8A4FCA445CFB8E8CB1A6C
:10557000B3E1DB0AE108F108C418D508E608F7082A
:10558000F7FED1CEEECF63E770E0DDCE0E9480560D
:1055900088E50E947FB7882331F05E9A8091E30608
:1055A0008E7F8093E30689E50E947FB7882331F0E0
:1055B0005E9A8091E3068D7F8093E3068AE50E94E0
:1055C0007FB7882309F4D1CA159A8091E3068B7FAF
:1055D0008093E306CACA0E944CB720E030E040E066
:1055E00050EC0E942DE087FD15C00E944CB720E0D2
:1055F00030E040E050E40E946AE818162CF00E9467
:105600004CB76B017C010BC0C12CD12CE12CB0E458
:10561000FB2E05C0C12CD12CE12CA0ECFA2E8091E0
:10562000E30682FF18C000914F0D1091500D20919C
:10563000290930912A0940912B0950912C09C70161
:10564000B6010E9493E00E94DCE7600F711F709327
:10565000500D60934F0D80E50E947FB7882329F09D
:105660000E943CB7882309F480CAA7019601609183
:10567000F0067091F1068091F2069091F3060E9477
:10568000E7E66093F0067093F1068093F20690933C
:10569000F306E3EFF7E084918F010F5F1F4F88233C
:1056A00021F00E94EFB7F801F6CF4091F00650913B
:1056B000F1066091F2067091F30687ED94E00E9486
:1056C0002FCF8AE00E94EFB750CA86E50E947FB7CD
:1056D000882341F08091870B9091880B892B11F0E2
:1056E0000E947E8B8C2D0E94108CC11003C0E3EFB2
:1056F000F7E01DC0809143068111F9CFE4ECF7E09B
:1057000084918F010F5F1F4F811103C0E3E2F5E029
:1057100004C00E94EFB7F801F3CF84918F010F5FAF
:105720001F4F882321F30E94EFB7F801F6CF849131
:105730008F010F5F1F4F882321F00E94EFB7F80100
:10574000F6CF80914306882319F06BE172E002C026
:105750006FE172E085E195E00E9465CF8AE00E94EA
:10576000EFB74CE050E064EF76E0CE0101960E9486
:1057700032E9892B09F4F9C90E94DB5BF6C9CE5BDB
:10578000DF4F0FB6F894DEBF0FBECDBFDF91CF91D4
:105790001F910F91FF90EF90DF90CF90BF90AF904F
:1057A0009F908F907F906F905F904F903F902F9041
:1057B00008958FEF8EBD0DB407FEFDCF8EB5089511
:1057C0004F925F926F927F928F929F92AF92BF9211
:1057D000CF92DF92EF92FF920F931F93CF93C82F38
:1057E000E82EF12CF701ED53F94FB490823029F4F3
:1057F00081E00E94938E811113C16701CC0CDD1CE6
:10580000CC0CDD1CF601E954F94F4590559065909C
:1058100074906B2DBB0C770B880B990B0E9434E0B6
:105820004B015C0120E030E040EC5FE3C301B201DA
:105830000E9493E0A50194010E9493E0AB01BC019A
:1058400000E010E098018C2F0E94378AC23061F08E
:10585000F601E555F94F85919591A591B491E82F01
:10586000792F6A2F8B2F04C0E0E070E060E480E4C1
:105870002E2F372F462F582FC501B4010E9493E0D9
:105880004B015C0120E030E0A9010E942DE088235B
:1058900009F45CC0C23021F000E010E0980104C0BF
:1058A00000E010E020E031E4B501A40170588C2F35
:1058B0000E94378AC23009F436C0F701E855F94F23
:1058C000649161111BC0E3EFF7E084917F019FEFCA
:1058D000E91AF90A882321F00E94EFB7F701F5CF02
:1058E000E6E8F6E084917F019FEFE91AF90A882340
:1058F00021F00E94EFB7F701F5CF6AE0F601EA5810
:10590000F94F459055906590749070E080E090E07C
:105910000E9434E09B01AC01C301B2010E946AE71E
:105920002B013C0106C0412C512C90E8692E90E4DB
:10593000792EA5019401C501B4010E94E7E6AB01EF
:10594000BC01930182018C2F0E94378A81E090E094
:105950000C2E01C0880F0A94EAF79091E306982B69
:105960009093E30690910F09892B80930F09F6011C
:10597000ED58FD4F10821182128213828C2F0E94EB
:10598000B393F601E659F94F85919591A591B4919C
:10599000F601EC50F94F80839183A283B383C23028
:1059A000D1F42091F0063091F1064091F206509129
:1059B000F3066091FC067091FD068091FE069091C1
:1059C000FF060E94E6E66093FC067093FD06809356
:1059D000FE069093FF060E94C1B6F601E854F94F07
:1059E000D601AC50B94F8D919D910D90BC91A02DD9
:1059F00080839183A283B383C23091F480E0CF91FE
:105A00001F910F91FF90EF90DF90CF90BF90AF90DC
:105A10009F908F907F906F905F904F900C94938E9B
:105A2000CF911F910F91FF90EF90DF90CF90BF909B
:105A3000AF909F908F907F906F905F904F90089560
:105A40000F931F93CF93DF938C01E3EFF7E08491E3
:105A5000EF012196882321F00E94EFB7FE01F7CFD6
:105A6000B8018DE596E00E9465CF82E20E94EFB713
:105A70008AE00E94EFB781E0DF91CF911F910F91F3
:105A800008954F925F926F927F928F929F92AF9202
:105A9000BF92CF92DF92EF92FF92CF936B017C0186
:105AA00049015A0120E030E040E352E40E94E7E679
:105AB0002B013C012FE632E143E85AEB0E946AE8F1
:105AC00087FD50C022E430E04BE653E4C301B2014D
:105AD0000E942DE018160CF445C020E030E040E2B2
